{
  "contractName": "Manageable",
  "abi": [
    {
      "anonymous": false,
      "inputs": [
        {
          "indexed": true,
          "internalType": "address",
          "name": "newAdmin",
          "type": "address"
        },
        {
          "indexed": true,
          "internalType": "address",
          "name": "admin",
          "type": "address"
        }
      ],
      "name": "AddAdmin",
      "type": "event"
    },
    {
      "anonymous": false,
      "inputs": [
        {
          "indexed": true,
          "internalType": "address",
          "name": "newStoreOwner",
          "type": "address"
        },
        {
          "indexed": true,
          "internalType": "address",
          "name": "storeOwner",
          "type": "address"
        }
      ],
      "name": "AddStoreOwner",
      "type": "event"
    },
    {
      "anonymous": false,
      "inputs": [],
      "name": "Pause",
      "type": "event"
    },
    {
      "anonymous": false,
      "inputs": [
        {
          "indexed": true,
          "internalType": "address",
          "name": "removedAdmin",
          "type": "address"
        },
        {
          "indexed": true,
          "internalType": "address",
          "name": "admin",
          "type": "address"
        }
      ],
      "name": "RevokeAdmin",
      "type": "event"
    },
    {
      "anonymous": false,
      "inputs": [
        {
          "indexed": true,
          "internalType": "address",
          "name": "removedStoreOwner",
          "type": "address"
        },
        {
          "indexed": true,
          "internalType": "address",
          "name": "storeOwner",
          "type": "address"
        }
      ],
      "name": "RevokeStoreOwner",
      "type": "event"
    },
    {
      "anonymous": false,
      "inputs": [],
      "name": "Unpause",
      "type": "event"
    },
    {
      "constant": true,
      "inputs": [
        {
          "internalType": "address",
          "name": "",
          "type": "address"
        }
      ],
      "name": "admins",
      "outputs": [
        {
          "internalType": "bool",
          "name": "",
          "type": "bool"
        }
      ],
      "payable": false,
      "stateMutability": "view",
      "type": "function"
    },
    {
      "constant": true,
      "inputs": [],
      "name": "paused",
      "outputs": [
        {
          "internalType": "bool",
          "name": "",
          "type": "bool"
        }
      ],
      "payable": false,
      "stateMutability": "view",
      "type": "function"
    },
    {
      "constant": true,
      "inputs": [
        {
          "internalType": "address",
          "name": "",
          "type": "address"
        }
      ],
      "name": "storeOwners",
      "outputs": [
        {
          "internalType": "bool",
          "name": "",
          "type": "bool"
        }
      ],
      "payable": false,
      "stateMutability": "view",
      "type": "function"
    },
    {
      "constant": false,
      "inputs": [
        {
          "internalType": "address",
          "name": "admin",
          "type": "address"
        }
      ],
      "name": "addAdmin",
      "outputs": [],
      "payable": false,
      "stateMutability": "nonpayable",
      "type": "function"
    },
    {
      "constant": false,
      "inputs": [
        {
          "internalType": "address",
          "name": "admin",
          "type": "address"
        }
      ],
      "name": "revokeAdmin",
      "outputs": [],
      "payable": false,
      "stateMutability": "nonpayable",
      "type": "function"
    },
    {
      "constant": false,
      "inputs": [
        {
          "internalType": "address",
          "name": "storeOwner",
          "type": "address"
        }
      ],
      "name": "addStoreOwner",
      "outputs": [],
      "payable": false,
      "stateMutability": "nonpayable",
      "type": "function"
    },
    {
      "constant": false,
      "inputs": [
        {
          "internalType": "address",
          "name": "storeOwner",
          "type": "address"
        }
      ],
      "name": "revokeStoreOwner",
      "outputs": [],
      "payable": false,
      "stateMutability": "nonpayable",
      "type": "function"
    },
    {
      "constant": false,
      "inputs": [],
      "name": "pause",
      "outputs": [],
      "payable": false,
      "stateMutability": "nonpayable",
      "type": "function"
    },
    {
      "constant": false,
      "inputs": [],
      "name": "unPause",
      "outputs": [],
      "payable": false,
      "stateMutability": "nonpayable",
      "type": "function"
    },
    {
      "constant": true,
      "inputs": [],
      "name": "isAdmin",
      "outputs": [
        {
          "internalType": "bool",
          "name": "",
          "type": "bool"
        }
      ],
      "payable": false,
      "stateMutability": "view",
      "type": "function"
    },
    {
      "constant": true,
      "inputs": [],
      "name": "isStoreOwner",
      "outputs": [
        {
          "internalType": "bool",
          "name": "",
          "type": "bool"
        }
      ],
      "payable": false,
      "stateMutability": "view",
      "type": "function"
    },
    {
      "constant": true,
      "inputs": [],
      "name": "checkIsPaused",
      "outputs": [
        {
          "internalType": "bool",
          "name": "",
          "type": "bool"
        }
      ],
      "payable": false,
      "stateMutability": "view",
      "type": "function"
    }
  ],
  "bytecode": "0x608060405234801561001057600080fd5b50610eec806100206000396000f3fe608060405234801561001057600080fd5b50600436106100a45760003560e01c8063057cc2a1146100a9578063174c4652146101055780632d34567014610127578063429b62e51461016b5780635c975abb146101c757806370480275146101e95780638456cb591461022d5780639adeb5f114610237578063b6db75a01461027b578063ce1c8ee71461029d578063da3b684a146102e1578063f7b188a514610303575b600080fd5b6100eb600480360360208110156100bf57600080fd5b81019080803573ffffffffffffffffffffffffffffffffffffffff16906020019092919050505061030d565b604051808215151515815260200191505060405180910390f35b61010d61032d565b604051808215151515815260200191505060405180910390f35b6101696004803603602081101561013d57600080fd5b81019080803573ffffffffffffffffffffffffffffffffffffffff169060200190929190505050610381565b005b6101ad6004803603602081101561018157600080fd5b81019080803573ffffffffffffffffffffffffffffffffffffffff169060200190929190505050610559565b604051808215151515815260200191505060405180910390f35b6101cf610579565b604051808215151515815260200191505060405180910390f35b61022b600480360360208110156101ff57600080fd5b81019080803573ffffffffffffffffffffffffffffffffffffffff16906020019092919050505061058c565b005b610235610764565b005b6102796004803603602081101561024d57600080fd5b81019080803573ffffffffffffffffffffffffffffffffffffffff1690602001909291905050506108d1565b005b610283610aa9565b604051808215151515815260200191505060405180910390f35b6102df600480360360208110156102b357600080fd5b81019080803573ffffffffffffffffffffffffffffffffffffffff169060200190929190505050610afc565b005b6102e9610cd5565b604051808215151515815260200191505060405180910390f35b61030b610cec565b005b60016020528060005260406000206000915054906101000a900460ff1681565b6000600160003373ffffffffffffffffffffffffffffffffffffffff1673ffffffffffffffffffffffffffffffffffffffff16815260200190815260200160002060009054906101000a900460ff16905090565b6000803373ffffffffffffffffffffffffffffffffffffffff1673ffffffffffffffffffffffffffffffffffffffff16815260200190815260200160002060009054906101000a900460ff1661043f576040517f08c379a00000000000000000000000000000000000000000000000000000000081526004018080602001828103825260118152602001807f4d75737420626520616e2061646d696e2e00000000000000000000000000000081525060200191505060405180910390fd5b600260009054906101000a900460ff16156104a5576040517f08c379a000000000000000000000000000000000000000000000000000000000815260040180806020018281038252603b815260200180610e59603b913960400191505060405180910390fd5b60008060008373ffffffffffffffffffffffffffffffffffffffff1673ffffffffffffffffffffffffffffffffffffffff16815260200190815260200160002060006101000a81548160ff0219169083151502179055503373ffffffffffffffffffffffffffffffffffffffff168173ffffffffffffffffffffffffffffffffffffffff167f64fe5b8de88c898e9178daabf0fa372d2d65ff14649e0f7e9f35b3a4b85ac08d60405160405180910390a350565b60006020528060005260406000206000915054906101000a900460ff1681565b600260009054906101000a900460ff1681565b6000803373ffffffffffffffffffffffffffffffffffffffff1673ffffffffffffffffffffffffffffffffffffffff16815260200190815260200160002060009054906101000a900460ff1661064a576040517f08c379a00000000000000000000000000000000000000000000000000000000081526004018080602001828103825260118152602001807f4d75737420626520616e2061646d696e2e00000000000000000000000000000081525060200191505060405180910390fd5b600260009054906101000a900460ff16156106b0576040517f08c379a000000000000000000000000000000000000000000000000000000000815260040180806020018281038252603b815260200180610e59603b913960400191505060405180910390fd5b60016000808373ffffffffffffffffffffffffffffffffffffffff1673ffffffffffffffffffffffffffffffffffffffff16815260200190815260200160002060006101000a81548160ff0219169083151502179055503373ffffffffffffffffffffffffffffffffffffffff168173ffffffffffffffffffffffffffffffffffffffff167f99ad91c72e4fcc0a37d0481b982aec5c0c78491d30d39e65338bec15fa9cc4b760405160405180910390a350565b600260009054906101000a900460ff16156107ca576040517f08c379a000000000000000000000000000000000000000000000000000000000815260040180806020018281038252603b815260200180610e59603b913960400191505060405180910390fd5b6000803373ffffffffffffffffffffffffffffffffffffffff1673ffffffffffffffffffffffffffffffffffffffff16815260200190815260200160002060009054906101000a900460ff16610888576040517f08c379a00000000000000000000000000000000000000000000000000000000081526004018080602001828103825260118152602001807f4d75737420626520616e2061646d696e2e00000000000000000000000000000081525060200191505060405180910390fd5b6001600260006101000a81548160ff0219169083151502179055507f6985a02210a168e66602d3235cb6db0e70f92b3ba4d376a33c0f3d9434bff62560405160405180910390a1565b6000803373ffffffffffffffffffffffffffffffffffffffff1673ffffffffffffffffffffffffffffffffffffffff16815260200190815260200160002060009054906101000a900460ff1661098f576040517f08c379a00000000000000000000000000000000000000000000000000000000081526004018080602001828103825260118152602001807f4d75737420626520616e2061646d696e2e00000000000000000000000000000081525060200191505060405180910390fd5b600260009054906101000a900460ff16156109f5576040517f08c379a000000000000000000000000000000000000000000000000000000000815260040180806020018281038252603b815260200180610e59603b913960400191505060405180910390fd5b60018060008373ffffffffffffffffffffffffffffffffffffffff1673ffffffffffffffffffffffffffffffffffffffff16815260200190815260200160002060006101000a81548160ff0219169083151502179055503373ffffffffffffffffffffffffffffffffffffffff168173ffffffffffffffffffffffffffffffffffffffff167f15b39d6a83b4640efed3a5dd692f6487d19002a6e34775bf3f00fcdea9d4758260405160405180910390a350565b60008060003373ffffffffffffffffffffffffffffffffffffffff1673ffffffffffffffffffffffffffffffffffffffff16815260200190815260200160002060009054906101000a900460ff16905090565b6000803373ffffffffffffffffffffffffffffffffffffffff1673ffffffffffffffffffffffffffffffffffffffff16815260200190815260200160002060009054906101000a900460ff16610bba576040517f08c379a00000000000000000000000000000000000000000000000000000000081526004018080602001828103825260118152602001807f4d75737420626520616e2061646d696e2e00000000000000000000000000000081525060200191505060405180910390fd5b600260009054906101000a900460ff1615610c20576040517f08c379a000000000000000000000000000000000000000000000000000000000815260040180806020018281038252603b815260200180610e59603b913960400191505060405180910390fd5b6000600160008373ffffffffffffffffffffffffffffffffffffffff1673ffffffffffffffffffffffffffffffffffffffff16815260200190815260200160002060006101000a81548160ff0219169083151502179055503373ffffffffffffffffffffffffffffffffffffffff168173ffffffffffffffffffffffffffffffffffffffff167fdbdfc8c7df7b1d1e6c481e94aad29707019da41a2485b2ea4d8724cddce3849060405160405180910390a350565b6000600260009054906101000a900460ff16905090565b600260009054906101000a900460ff16610d51576040517f08c379a0000000000000000000000000000000000000000000000000000000008152600401808060200182810382526024815260200180610e946024913960400191505060405180910390fd5b6000803373ffffffffffffffffffffffffffffffffffffffff1673ffffffffffffffffffffffffffffffffffffffff16815260200190815260200160002060009054906101000a900460ff16610e0f576040517f08c379a00000000000000000000000000000000000000000000000000000000081526004018080602001828103825260118152602001807f4d75737420626520616e2061646d696e2e00000000000000000000000000000081525060200191505060405180910390fd5b6000600260006101000a81548160ff0219169083151502179055507f7805862f689e2f13df9f062ff482ad3ad112aca9e0847911ed832e158c525b3360405160405180910390a156fe4f7065726174696f6e73207769746820746865206f6e6c696e65206d61726b6574706c616365206172652063757272656e746c792070617573652e43616e277420756e70617573653b2063757272656e746c79206e6f74207061757365642ea265627a7a72315820e34da015c578fe80ae5a2e24cb627effc358022b87816446290ca3880d0ad92964736f6c63430005100032",
  "source": "// SPDX-License-Identifier: Zlib\r\npragma solidity >=0.5.16 <0.8.0;\r\n\r\n/// @title Manageable interface - manages admins, store owners and has pausable functionality\r\n/// @author Danielle Lapis\r\ncontract Manageable {\r\n    mapping(address => bool) public admins;\r\n    mapping(address => bool) public storeOwners;\r\n\r\n    bool public paused;\r\n\r\n    // events\r\n    event AddAdmin(address indexed newAdmin, address indexed admin);\r\n    event RevokeAdmin(address indexed removedAdmin, address indexed admin);\r\n    event AddStoreOwner(address indexed newStoreOwner, address indexed storeOwner);\r\n    event RevokeStoreOwner(address indexed removedStoreOwner, address indexed storeOwner);\r\n\r\n    event Pause();\r\n    event Unpause();\r\n\r\n    // modifiers\r\n    modifier storeOwnerOnly() {\r\n        require(storeOwners[msg.sender],\"Must be a store owner.\");\r\n        _;\r\n    }\r\n    \r\n    modifier adminOnly() {\r\n        require(admins[msg.sender],\"Must be an admin.\");\r\n        _;\r\n    }\r\n\r\n    modifier notPaused() {\r\n        require(!paused,\"Operations with the online marketplace are currently pause.\");\r\n        _;\r\n    }\r\n\r\n    modifier isPaused() {\r\n        require(paused,\"Can't unpause; currently not paused.\");\r\n        _;\r\n    }\r\n\r\n    /// @dev Adds a new address as admin\r\n    /// @param admin address for the new admin\r\n    function addAdmin(address admin) adminOnly notPaused external {\r\n        admins[admin] = true;\r\n        emit AddAdmin(admin, msg.sender);\r\n    }\r\n\r\n    /// @dev Rmoves a new address as admin\r\n    /// @param admin address to remove as admin\r\n    function revokeAdmin(address admin) adminOnly notPaused external {\r\n        admins[admin] = false;\r\n        emit RevokeAdmin(admin, msg.sender);\r\n    }\r\n\r\n    /// @dev Adds a store owner\r\n    /// @param storeOwner address to add as a store owner\r\n    function addStoreOwner(address storeOwner) adminOnly notPaused external {\r\n        storeOwners[storeOwner] = true;\r\n        emit AddStoreOwner(storeOwner, msg.sender);\r\n    }\r\n\r\n    /// @dev Removes store owner permissions\r\n    /// @param storeOwner address to remove as a store owner\r\n    function revokeStoreOwner(address storeOwner) adminOnly notPaused external {\r\n        storeOwners[storeOwner] = false;\r\n        emit RevokeStoreOwner(storeOwner, msg.sender);\r\n    }\r\n\r\n    /// @dev Circuit breaker - pauses the contract\r\n    function pause() external notPaused adminOnly {\r\n        paused = true;\r\n        emit Pause();\r\n    }\r\n\r\n    /// @dev Circuit breaker - unpauses the contract\r\n    function unPause() external isPaused adminOnly {\r\n        paused = false;\r\n        emit Unpause();\r\n    }\r\n\r\n    // user status functions\r\n\r\n    /// @return returns status of whether the user is an admin or not\r\n    function isAdmin() external view returns (bool) {\r\n        return admins[msg.sender];\r\n    }\r\n\r\n    /// @return returns status of whether the user is a store owner or not\r\n    function isStoreOwner() external view returns (bool) {\r\n        return storeOwners[msg.sender];\r\n    }\r\n\r\n    /// @return returns true if the store is paused, false if not\r\n    function checkIsPaused() external view returns (bool) {\r\n        return paused;\r\n    }\r\n\r\n}",
  "sourcePath": "/mnt/c/Users/Danielle/projects/consensys/react-online-marketplace/contracts/Manageable.sol",
  "compiler": {
    "name": "solc",
    "version": "0.5.16+commit.9c3226ce.Emscripten.clang"
  },
  "schemaVersion": "3.2.5",
  "updatedAt": "2020-11-30T05:03:03.531Z",
  "devdoc": {
    "author": "Danielle Lapis",
    "methods": {
      "addAdmin(address)": {
        "details": "Adds a new address as admin",
        "params": {
          "admin": "address for the new admin"
        }
      },
      "addStoreOwner(address)": {
        "details": "Adds a store owner",
        "params": {
          "storeOwner": "address to add as a store owner"
        }
      },
      "checkIsPaused()": {
        "return": "returns true if the store is paused, false if not"
      },
      "isAdmin()": {
        "return": "returns status of whether the user is an admin or not"
      },
      "isStoreOwner()": {
        "return": "returns status of whether the user is a store owner or not"
      },
      "pause()": {
        "details": "Circuit breaker - pauses the contract"
      },
      "revokeAdmin(address)": {
        "details": "Rmoves a new address as admin",
        "params": {
          "admin": "address to remove as admin"
        }
      },
      "revokeStoreOwner(address)": {
        "details": "Removes store owner permissions",
        "params": {
          "storeOwner": "address to remove as a store owner"
        }
      },
      "unPause()": {
        "details": "Circuit breaker - unpauses the contract"
      }
    },
    "title": "Manageable interface - manages admins, store owners and has pausable functionality"
  },
  "userdoc": {
    "methods": {}
  }
}