{
  "contractName": "Marketplace",
  "abi": [
    {
      "inputs": [],
      "payable": false,
      "stateMutability": "nonpayable",
      "type": "constructor"
    },
    {
      "anonymous": false,
      "inputs": [
        {
          "indexed": true,
          "internalType": "address",
          "name": "newAdmin",
          "type": "address"
        },
        {
          "indexed": true,
          "internalType": "address",
          "name": "admin",
          "type": "address"
        }
      ],
      "name": "AddAdmin",
      "type": "event"
    },
    {
      "anonymous": false,
      "inputs": [
        {
          "indexed": true,
          "internalType": "address",
          "name": "storeOwner",
          "type": "address"
        },
        {
          "indexed": false,
          "internalType": "uint256",
          "name": "storeId",
          "type": "uint256"
        },
        {
          "indexed": false,
          "internalType": "uint256",
          "name": "itemId",
          "type": "uint256"
        },
        {
          "indexed": false,
          "internalType": "string",
          "name": "name",
          "type": "string"
        },
        {
          "indexed": false,
          "internalType": "uint256",
          "name": "price",
          "type": "uint256"
        },
        {
          "indexed": false,
          "internalType": "uint256",
          "name": "quantity",
          "type": "uint256"
        }
      ],
      "name": "AddNewItem",
      "type": "event"
    },
    {
      "anonymous": false,
      "inputs": [
        {
          "indexed": true,
          "internalType": "address",
          "name": "storeOwner",
          "type": "address"
        },
        {
          "indexed": false,
          "internalType": "uint256",
          "name": "storeId",
          "type": "uint256"
        },
        {
          "indexed": false,
          "internalType": "string",
          "name": "name",
          "type": "string"
        }
      ],
      "name": "AddStore",
      "type": "event"
    },
    {
      "anonymous": false,
      "inputs": [
        {
          "indexed": true,
          "internalType": "address",
          "name": "newStoreOwner",
          "type": "address"
        },
        {
          "indexed": true,
          "internalType": "address",
          "name": "storeOwner",
          "type": "address"
        }
      ],
      "name": "AddStoreOwner",
      "type": "event"
    },
    {
      "anonymous": false,
      "inputs": [
        {
          "indexed": false,
          "internalType": "uint256",
          "name": "storeId",
          "type": "uint256"
        },
        {
          "indexed": false,
          "internalType": "uint256",
          "name": "itemId",
          "type": "uint256"
        }
      ],
      "name": "BuyItem",
      "type": "event"
    },
    {
      "anonymous": false,
      "inputs": [
        {
          "indexed": true,
          "internalType": "address",
          "name": "storeOwner",
          "type": "address"
        },
        {
          "indexed": false,
          "internalType": "uint256",
          "name": "storeId",
          "type": "uint256"
        },
        {
          "indexed": false,
          "internalType": "uint256",
          "name": "itemId",
          "type": "uint256"
        },
        {
          "indexed": false,
          "internalType": "uint256",
          "name": "price",
          "type": "uint256"
        }
      ],
      "name": "ChangePrice",
      "type": "event"
    },
    {
      "anonymous": false,
      "inputs": [],
      "name": "Pause",
      "type": "event"
    },
    {
      "anonymous": false,
      "inputs": [
        {
          "indexed": false,
          "internalType": "uint256",
          "name": "storeId",
          "type": "uint256"
        },
        {
          "indexed": false,
          "internalType": "uint256",
          "name": "id",
          "type": "uint256"
        }
      ],
      "name": "RemoveItem",
      "type": "event"
    },
    {
      "anonymous": false,
      "inputs": [
        {
          "indexed": true,
          "internalType": "address",
          "name": "removedAdmin",
          "type": "address"
        },
        {
          "indexed": true,
          "internalType": "address",
          "name": "admin",
          "type": "address"
        }
      ],
      "name": "RevokeAdmin",
      "type": "event"
    },
    {
      "anonymous": false,
      "inputs": [
        {
          "indexed": true,
          "internalType": "address",
          "name": "removedStoreOwner",
          "type": "address"
        },
        {
          "indexed": true,
          "internalType": "address",
          "name": "storeOwner",
          "type": "address"
        }
      ],
      "name": "RevokeStoreOwner",
      "type": "event"
    },
    {
      "anonymous": false,
      "inputs": [],
      "name": "Unpause",
      "type": "event"
    },
    {
      "anonymous": false,
      "inputs": [
        {
          "indexed": true,
          "internalType": "address",
          "name": "storeOwner",
          "type": "address"
        },
        {
          "indexed": false,
          "internalType": "uint256",
          "name": "storeId",
          "type": "uint256"
        },
        {
          "indexed": false,
          "internalType": "uint256",
          "name": "funds",
          "type": "uint256"
        }
      ],
      "name": "WithdrawFunds",
      "type": "event"
    },
    {
      "constant": false,
      "inputs": [
        {
          "internalType": "address",
          "name": "admin",
          "type": "address"
        }
      ],
      "name": "addAdmin",
      "outputs": [],
      "payable": false,
      "stateMutability": "nonpayable",
      "type": "function"
    },
    {
      "constant": false,
      "inputs": [
        {
          "internalType": "address",
          "name": "storeOwner",
          "type": "address"
        }
      ],
      "name": "addStoreOwner",
      "outputs": [],
      "payable": false,
      "stateMutability": "nonpayable",
      "type": "function"
    },
    {
      "constant": true,
      "inputs": [
        {
          "internalType": "address",
          "name": "",
          "type": "address"
        }
      ],
      "name": "admins",
      "outputs": [
        {
          "internalType": "bool",
          "name": "",
          "type": "bool"
        }
      ],
      "payable": false,
      "stateMutability": "view",
      "type": "function"
    },
    {
      "constant": true,
      "inputs": [],
      "name": "checkIsPaused",
      "outputs": [
        {
          "internalType": "bool",
          "name": "",
          "type": "bool"
        }
      ],
      "payable": false,
      "stateMutability": "view",
      "type": "function"
    },
    {
      "constant": true,
      "inputs": [],
      "name": "isAdmin",
      "outputs": [
        {
          "internalType": "bool",
          "name": "",
          "type": "bool"
        }
      ],
      "payable": false,
      "stateMutability": "view",
      "type": "function"
    },
    {
      "constant": true,
      "inputs": [],
      "name": "isStoreOwner",
      "outputs": [
        {
          "internalType": "bool",
          "name": "",
          "type": "bool"
        }
      ],
      "payable": false,
      "stateMutability": "view",
      "type": "function"
    },
    {
      "constant": false,
      "inputs": [],
      "name": "pause",
      "outputs": [],
      "payable": false,
      "stateMutability": "nonpayable",
      "type": "function"
    },
    {
      "constant": true,
      "inputs": [],
      "name": "paused",
      "outputs": [
        {
          "internalType": "bool",
          "name": "",
          "type": "bool"
        }
      ],
      "payable": false,
      "stateMutability": "view",
      "type": "function"
    },
    {
      "constant": false,
      "inputs": [
        {
          "internalType": "address",
          "name": "admin",
          "type": "address"
        }
      ],
      "name": "revokeAdmin",
      "outputs": [],
      "payable": false,
      "stateMutability": "nonpayable",
      "type": "function"
    },
    {
      "constant": false,
      "inputs": [
        {
          "internalType": "address",
          "name": "storeOwner",
          "type": "address"
        }
      ],
      "name": "revokeStoreOwner",
      "outputs": [],
      "payable": false,
      "stateMutability": "nonpayable",
      "type": "function"
    },
    {
      "constant": true,
      "inputs": [
        {
          "internalType": "address",
          "name": "",
          "type": "address"
        }
      ],
      "name": "storeOwners",
      "outputs": [
        {
          "internalType": "bool",
          "name": "",
          "type": "bool"
        }
      ],
      "payable": false,
      "stateMutability": "view",
      "type": "function"
    },
    {
      "constant": true,
      "inputs": [
        {
          "internalType": "uint256",
          "name": "",
          "type": "uint256"
        }
      ],
      "name": "stores",
      "outputs": [
        {
          "internalType": "address",
          "name": "owner",
          "type": "address"
        },
        {
          "internalType": "string",
          "name": "name",
          "type": "string"
        },
        {
          "internalType": "uint256",
          "name": "funds",
          "type": "uint256"
        },
        {
          "internalType": "uint256",
          "name": "highItemId",
          "type": "uint256"
        },
        {
          "internalType": "bool",
          "name": "firstItemCreated",
          "type": "bool"
        }
      ],
      "payable": false,
      "stateMutability": "view",
      "type": "function"
    },
    {
      "constant": false,
      "inputs": [],
      "name": "unPause",
      "outputs": [],
      "payable": false,
      "stateMutability": "nonpayable",
      "type": "function"
    },
    {
      "constant": false,
      "inputs": [
        {
          "internalType": "string",
          "name": "name",
          "type": "string"
        }
      ],
      "name": "addStore",
      "outputs": [],
      "payable": false,
      "stateMutability": "nonpayable",
      "type": "function"
    },
    {
      "constant": false,
      "inputs": [
        {
          "internalType": "uint256",
          "name": "storeId",
          "type": "uint256"
        },
        {
          "internalType": "string",
          "name": "name",
          "type": "string"
        },
        {
          "internalType": "uint256",
          "name": "price",
          "type": "uint256"
        },
        {
          "internalType": "uint256",
          "name": "quantity",
          "type": "uint256"
        }
      ],
      "name": "addStoreItem",
      "outputs": [],
      "payable": false,
      "stateMutability": "nonpayable",
      "type": "function"
    },
    {
      "constant": false,
      "inputs": [
        {
          "internalType": "uint256",
          "name": "storeId",
          "type": "uint256"
        },
        {
          "internalType": "uint256",
          "name": "itemId",
          "type": "uint256"
        }
      ],
      "name": "removeStoreItem",
      "outputs": [],
      "payable": false,
      "stateMutability": "nonpayable",
      "type": "function"
    },
    {
      "constant": false,
      "inputs": [
        {
          "internalType": "uint256",
          "name": "storeId",
          "type": "uint256"
        },
        {
          "internalType": "uint256",
          "name": "itemId",
          "type": "uint256"
        },
        {
          "internalType": "uint256",
          "name": "newPrice",
          "type": "uint256"
        }
      ],
      "name": "changeItemPrice",
      "outputs": [],
      "payable": false,
      "stateMutability": "nonpayable",
      "type": "function"
    },
    {
      "constant": false,
      "inputs": [
        {
          "internalType": "uint256",
          "name": "storeId",
          "type": "uint256"
        },
        {
          "internalType": "uint256",
          "name": "amountToWithdraw",
          "type": "uint256"
        }
      ],
      "name": "withdrawStoreFunds",
      "outputs": [
        {
          "internalType": "uint256",
          "name": "withdrawAmount",
          "type": "uint256"
        }
      ],
      "payable": true,
      "stateMutability": "payable",
      "type": "function"
    },
    {
      "constant": false,
      "inputs": [
        {
          "internalType": "uint256",
          "name": "storeId",
          "type": "uint256"
        },
        {
          "internalType": "uint256",
          "name": "itemId",
          "type": "uint256"
        }
      ],
      "name": "buyStoreItem",
      "outputs": [],
      "payable": true,
      "stateMutability": "payable",
      "type": "function"
    },
    {
      "constant": true,
      "inputs": [
        {
          "internalType": "uint256",
          "name": "storeId",
          "type": "uint256"
        },
        {
          "internalType": "uint256",
          "name": "itemId",
          "type": "uint256"
        }
      ],
      "name": "fetchItem",
      "outputs": [
        {
          "internalType": "uint256",
          "name": "id",
          "type": "uint256"
        },
        {
          "internalType": "string",
          "name": "name",
          "type": "string"
        },
        {
          "internalType": "uint256",
          "name": "price",
          "type": "uint256"
        },
        {
          "internalType": "uint256",
          "name": "quantity",
          "type": "uint256"
        }
      ],
      "payable": false,
      "stateMutability": "view",
      "type": "function"
    },
    {
      "constant": true,
      "inputs": [
        {
          "internalType": "uint256",
          "name": "storeId",
          "type": "uint256"
        }
      ],
      "name": "fetchStore",
      "outputs": [
        {
          "internalType": "uint256",
          "name": "id",
          "type": "uint256"
        },
        {
          "internalType": "string",
          "name": "name",
          "type": "string"
        },
        {
          "internalType": "uint256",
          "name": "funds",
          "type": "uint256"
        },
        {
          "internalType": "uint256",
          "name": "highItemId",
          "type": "uint256"
        },
        {
          "internalType": "address",
          "name": "owner",
          "type": "address"
        }
      ],
      "payable": false,
      "stateMutability": "view",
      "type": "function"
    },
    {
      "constant": true,
      "inputs": [],
      "name": "getLastStoreId",
      "outputs": [
        {
          "internalType": "uint256",
          "name": "id",
          "type": "uint256"
        }
      ],
      "payable": false,
      "stateMutability": "view",
      "type": "function"
    },
    {
      "constant": true,
      "inputs": [
        {
          "internalType": "uint256",
          "name": "id",
          "type": "uint256"
        }
      ],
      "name": "getItemCount",
      "outputs": [
        {
          "internalType": "uint256",
          "name": "highItemId",
          "type": "uint256"
        }
      ],
      "payable": false,
      "stateMutability": "view",
      "type": "function"
    },
    {
      "constant": true,
      "inputs": [],
      "name": "getFrontEndData",
      "outputs": [
        {
          "internalType": "bool",
          "name": "userIsAdmin",
          "type": "bool"
        },
        {
          "internalType": "bool",
          "name": "userIsStoreOwner",
          "type": "bool"
        },
        {
          "internalType": "uint256",
          "name": "id",
          "type": "uint256"
        }
      ],
      "payable": false,
      "stateMutability": "view",
      "type": "function"
    }
  ],
  "bytecode": "0x60806040523480156200001157600080fd5b5060016000803373ffffffffffffffffffffffffffffffffffffffff1673ffffffffffffffffffffffffffffffffffffffff16815260200190815260200160002060006101000a81548160ff02191690831515021790555060018060003373ffffffffffffffffffffffffffffffffffffffff1673ffffffffffffffffffffffffffffffffffffffff16815260200190815260200160002060006101000a81548160ff0219169083151502179055506000600260006101000a81548160ff021916908315150217905550336003600080815260200190815260200160002060000160006101000a81548173ffffffffffffffffffffffffffffffffffffffff021916908373ffffffffffffffffffffffffffffffffffffffff1602179055506040518060400160405280600e81526020017f537572766976616c204974656d73000000000000000000000000000000000000815250600360008081526020019081526020016000206001019080519060200190620001919291906200074b565b506000600360008081526020019081526020016000206002018190555060405180606001604052806040518060400160405280600b81526020017f466c6173686c6967687473000000000000000000000000000000000000000000815250815260200160028152602001600a815250600360008081526020019081526020016000206005016000808152602001908152602001600020600082015181600001908051906020019062000245929190620007d2565b50602082015181600101556040820151816002015590505060405180606001604052806040518060400160405280600e81526020017f466972737420416964204b6974730000000000000000000000000000000000008152508152602001600181526020016014815250600360008081526020019081526020016000206005016000600181526020019081526020016000206000820151816000019080519060200190620002f5929190620007d2565b50602082015181600101556040820151816002015590505060405180606001604052806040518060400160405280600681526020017f466c617265730000000000000000000000000000000000000000000000000000815250815260200160018152602001600a815250600360008081526020019081526020016000206005016000600281526020019081526020016000206000820151816000019080519060200190620003a5929190620007d2565b5060208201518160010155604082015181600201559050506002600360008081526020019081526020016000206003018190555060016003600080815260200190815260200160002060040160006101000a81548160ff02191690831515021790555033600360006001815260200190815260200160002060000160006101000a81548173ffffffffffffffffffffffffffffffffffffffff021916908373ffffffffffffffffffffffffffffffffffffffff1602179055506040518060400160405280601881526020017f536f6c69646974792050726f6772616d6d65722047656172000000000000000081525060036000600181526020019081526020016000206001019080519060200190620004c09291906200074b565b50600060036000600181526020019081526020016000206002018190555060405180606001604052806040518060400160405280601381526020017f4c656e6f766f204c696e7578204c6170746f7000000000000000000000000000815250815260200160058152602001600a81525060036000600181526020019081526020016000206005016000808152602001908152602001600020600082015181600001908051906020019062000576929190620007d2565b50602082015181600101556040820151816002015590505060405180606001604052806040518060400160405280601281526020017f4d6163626f6f6b2050726f206c6170746f70000000000000000000000000000081525081526020016005815260200160058152506003600060018152602001908152602001600020600501600060018152602001908152602001600020600082015181600001908051906020019062000627929190620007d2565b50602082015181600101556040820151816002015590505060405180606001604052806040518060400160405280601a81526020017f49204c6f766520536f6c696469747920436f66666565204d7567000000000000815250815260200160018152602001606481525060036000600181526020019081526020016000206005016000600281526020019081526020016000206000820151816000019080519060200190620006d8929190620007d2565b50602082015181600101556040820151816002015590505060026003600060018152602001908152602001600020600301819055506001600360006001815260200190815260200160002060040160006101000a81548160ff021916908315150217905550600160048190555062000881565b828054600181600116156101000203166002900490600052602060002090601f016020900481019282601f106200078e57805160ff1916838001178555620007bf565b82800160010185558215620007bf579182015b82811115620007be578251825591602001919060010190620007a1565b5b509050620007ce919062000859565b5090565b828054600181600116156101000203166002900490600052602060002090601f016020900481019282601f106200081557805160ff191683800117855562000846565b8280016001018555821562000846579182015b828111156200084557825182559160200191906001019062000828565b5b50905062000855919062000859565b5090565b6200087e91905b808211156200087a57600081600090555060010162000860565b5090565b90565b6130c880620008916000396000f3fe60806040526004361061012b5760003560e01c8063ad637835116100a6578063ad637835146104b5578063b269b819146104fa578063b3f00f1614610525578063b6db75a014610621578063bdc441b214610650578063ce1c8ee71461069f578063d08f4322146106f0578063d5e57da614610794578063da3b684a14610867578063ddf9bc6e14610896578063e8a59cd8146108e5578063f7b188a5146109e55761012b565b8063057cc2a114610130578063174c4652146101995780632d345670146101c85780633d743bf614610219578063429b62e5146102655780635c975abb146102ce578063662feffc146102fd5780637048027514610383578063737c6bbd146103d45780638456cb591461040c5780639adeb5f114610423578063a60f681114610474575b600080fd5b34801561013c57600080fd5b5061017f6004803603602081101561015357600080fd5b81019080803573ffffffffffffffffffffffffffffffffffffffff1690602001909291905050506109fc565b604051808215151515815260200191505060405180910390f35b3480156101a557600080fd5b506101ae610a1c565b604051808215151515815260200191505060405180910390f35b3480156101d457600080fd5b50610217600480360360208110156101eb57600080fd5b81019080803573ffffffffffffffffffffffffffffffffffffffff169060200190929190505050610a70565b005b61024f6004803603604081101561022f57600080fd5b810190808035906020019092919080359060200190929190505050610c48565b6040518082815260200191505060405180910390f35b34801561027157600080fd5b506102b46004803603602081101561028857600080fd5b81019080803573ffffffffffffffffffffffffffffffffffffffff169060200190929190505050610fb7565b604051808215151515815260200191505060405180910390f35b3480156102da57600080fd5b506102e3610fd7565b604051808215151515815260200191505060405180910390f35b34801561030957600080fd5b506103816004803603602081101561032057600080fd5b810190808035906020019064010000000081111561033d57600080fd5b82018360208201111561034f57600080fd5b8035906020019184600183028401116401000000008311171561037157600080fd5b9091929391929390505050610fea565b005b34801561038f57600080fd5b506103d2600480360360208110156103a657600080fd5b81019080803573ffffffffffffffffffffffffffffffffffffffff169060200190929190505050611309565b005b61040a600480360360408110156103ea57600080fd5b8101908080359060200190929190803590602001909291905050506114e1565b005b34801561041857600080fd5b50610421611848565b005b34801561042f57600080fd5b506104726004803603602081101561044657600080fd5b81019080803573ffffffffffffffffffffffffffffffffffffffff1690602001909291905050506119b5565b005b34801561048057600080fd5b50610489611b8d565b604051808415151515815260200183151515158152602001828152602001935050505060405180910390f35b3480156104c157600080fd5b506104f8600480360360408110156104d857600080fd5b810190808035906020019092919080359060200190929190505050611c39565b005b34801561050657600080fd5b5061050f611ec6565b6040518082815260200191505060405180910390f35b34801561053157600080fd5b5061055e6004803603602081101561054857600080fd5b8101908080359060200190929190505050611ed0565b60405180868152602001806020018581526020018481526020018373ffffffffffffffffffffffffffffffffffffffff1673ffffffffffffffffffffffffffffffffffffffff168152602001828103825286818151815260200191508051906020019080838360005b838110156105e25780820151818401526020810190506105c7565b50505050905090810190601f16801561060f5780820380516001836020036101000a031916815260200191505b50965050505050505060405180910390f35b34801561062d57600080fd5b5061063661200d565b604051808215151515815260200191505060405180910390f35b34801561065c57600080fd5b506106896004803603602081101561067357600080fd5b8101908080359060200190929190505050612060565b6040518082815260200191505060405180910390f35b3480156106ab57600080fd5b506106ee600480360360208110156106c257600080fd5b81019080803573ffffffffffffffffffffffffffffffffffffffff169060200190929190505050612080565b005b3480156106fc57600080fd5b506107926004803603608081101561071357600080fd5b81019080803590602001909291908035906020019064010000000081111561073a57600080fd5b82018360208201111561074c57600080fd5b8035906020019184600183028401116401000000008311171561076e57600080fd5b90919293919293908035906020019092919080359060200190929190505050612259565b005b3480156107a057600080fd5b506107d7600480360360408110156107b757600080fd5b810190808035906020019092919080359060200190929190505050612688565b6040518085815260200180602001848152602001838152602001828103825285818151815260200191508051906020019080838360005b8381101561082957808201518184015260208101905061080e565b50505050905090810190601f1680156108565780820380516001836020036101000a031916815260200191505b509550505050505060405180910390f35b34801561087357600080fd5b5061087c6127eb565b604051808215151515815260200191505060405180910390f35b3480156108a257600080fd5b506108e3600480360360608110156108b957600080fd5b81019080803590602001909291908035906020019092919080359060200190929190505050612802565b005b3480156108f157600080fd5b5061091e6004803603602081101561090857600080fd5b8101908080359060200190929190505050612a94565b604051808673ffffffffffffffffffffffffffffffffffffffff1673ffffffffffffffffffffffffffffffffffffffff1681526020018060200185815260200184815260200183151515158152602001828103825286818151815260200191508051906020019080838360005b838110156109a657808201518184015260208101905061098b565b50505050905090810190601f1680156109d35780820380516001836020036101000a031916815260200191505b50965050505050505060405180910390f35b3480156109f157600080fd5b506109fa612b8f565b005b60016020528060005260406000206000915054906101000a900460ff1681565b6000600160003373ffffffffffffffffffffffffffffffffffffffff1673ffffffffffffffffffffffffffffffffffffffff16815260200190815260200160002060009054906101000a900460ff16905090565b6000803373ffffffffffffffffffffffffffffffffffffffff1673ffffffffffffffffffffffffffffffffffffffff16815260200190815260200160002060009054906101000a900460ff16610b2e576040517f08c379a00000000000000000000000000000000000000000000000000000000081526004018080602001828103825260118152602001807f4d75737420626520616e2061646d696e2e00000000000000000000000000000081525060200191505060405180910390fd5b600260009054906101000a900460ff1615610b94576040517f08c379a000000000000000000000000000000000000000000000000000000000815260040180806020018281038252603b815260200180613035603b913960400191505060405180910390fd5b60008060008373ffffffffffffffffffffffffffffffffffffffff1673ffffffffffffffffffffffffffffffffffffffff16815260200190815260200160002060006101000a81548160ff0219169083151502179055503373ffffffffffffffffffffffffffffffffffffffff168173ffffffffffffffffffffffffffffffffffffffff167f64fe5b8de88c898e9178daabf0fa372d2d65ff14649e0f7e9f35b3a4b85ac08d60405160405180910390a350565b6000600260009054906101000a900460ff1615610cb0576040517f08c379a000000000000000000000000000000000000000000000000000000000815260040180806020018281038252603b815260200180613035603b913960400191505060405180910390fd5b600160003373ffffffffffffffffffffffffffffffffffffffff1673ffffffffffffffffffffffffffffffffffffffff16815260200190815260200160002060009054906101000a900460ff16610d6f576040517f08c379a00000000000000000000000000000000000000000000000000000000081526004018080602001828103825260168152602001807f4d75737420626520612073746f7265206f776e65722e0000000000000000000081525060200191505060405180910390fd5b33838173ffffffffffffffffffffffffffffffffffffffff166003600083815260200190815260200160002060000160009054906101000a900473ffffffffffffffffffffffffffffffffffffffff1673ffffffffffffffffffffffffffffffffffffffff1614610e48576040517f08c379a000000000000000000000000000000000000000000000000000000000815260040180806020018281038252601b8152602001807f4d75737420626520746869732073746f72652773206f776e657221000000000081525060200191505060405180910390fd5b60036000868152602001908152602001600020600201548410610eb6576040517f08c379a000000000000000000000000000000000000000000000000000000000815260040180806020018281038252603a815260200180612ffb603a913960400191505060405180910390fd5b610edf846003600088815260200190815260200160002060020154612cfb90919063ffffffff16565b60036000878152602001908152602001600020600201819055503373ffffffffffffffffffffffffffffffffffffffff167f850f3c7e08f80943d8666ef94f99a95a9f85b3fc39af2a08829aa61a276b7a428686604051808381526020018281526020019250505060405180910390a23373ffffffffffffffffffffffffffffffffffffffff166108fc859081150290604051600060405180830381858888f19350505050158015610f95573d6000803e3d6000fd5b5060036000868152602001908152602001600020600201549250505092915050565b60006020528060005260406000206000915054906101000a900460ff1681565b600260009054906101000a900460ff1681565b600260009054906101000a900460ff1615611050576040517f08c379a000000000000000000000000000000000000000000000000000000000815260040180806020018281038252603b815260200180613035603b913960400191505060405180910390fd5b600160003373ffffffffffffffffffffffffffffffffffffffff1673ffffffffffffffffffffffffffffffffffffffff16815260200190815260200160002060009054906101000a900460ff1661110f576040517f08c379a00000000000000000000000000000000000000000000000000000000081526004018080602001828103825260168152602001807f4d75737420626520612073746f7265206f776e65722e0000000000000000000081525060200191505060405180910390fd5b600f6004541115611188576040517f08c379a00000000000000000000000000000000000000000000000000000000081526004018080602001828103825260178152602001807f546865206c696d69742069732031362073746f7265732100000000000000000081525060200191505060405180910390fd5b600160046000828254019250508190555060006004549050336003600083815260200190815260200160002060000160006101000a81548173ffffffffffffffffffffffffffffffffffffffff021916908373ffffffffffffffffffffffffffffffffffffffff160217905550828260036000848152602001908152602001600020600101919061121a929190612e8d565b50600060036000838152602001908152602001600020600201819055506000600360008381526020019081526020016000206003018190555060006003600083815260200190815260200160002060040160006101000a81548160ff0219169083151502179055503373ffffffffffffffffffffffffffffffffffffffff167f4014c61333d535d16aa6dca4efac566025b39f7bb7fa4529da40c6feca39009782858560405180848152602001806020018281038252848482818152602001925080828437600081840152601f19601f82011690508083019250505094505050505060405180910390a2505050565b6000803373ffffffffffffffffffffffffffffffffffffffff1673ffffffffffffffffffffffffffffffffffffffff16815260200190815260200160002060009054906101000a900460ff166113c7576040517f08c379a00000000000000000000000000000000000000000000000000000000081526004018080602001828103825260118152602001807f4d75737420626520616e2061646d696e2e00000000000000000000000000000081525060200191505060405180910390fd5b600260009054906101000a900460ff161561142d576040517f08c379a000000000000000000000000000000000000000000000000000000000815260040180806020018281038252603b815260200180613035603b913960400191505060405180910390fd5b60016000808373ffffffffffffffffffffffffffffffffffffffff1673ffffffffffffffffffffffffffffffffffffffff16815260200190815260200160002060006101000a81548160ff0219169083151502179055503373ffffffffffffffffffffffffffffffffffffffff168173ffffffffffffffffffffffffffffffffffffffff167f99ad91c72e4fcc0a37d0481b982aec5c0c78491d30d39e65338bec15fa9cc4b760405160405180910390a350565b600260009054906101000a900460ff1615611547576040517f08c379a000000000000000000000000000000000000000000000000000000000815260040180806020018281038252603b815260200180613035603b913960400191505060405180910390fd5b60036000838152602001908152602001600020600501600082815260200190815260200160002060010154803410156115e8576040517f08c379a00000000000000000000000000000000000000000000000000000000081526004018080602001828103825260148152602001807f4e6f7420656e6f7567682077617320706169642e00000000000000000000000081525060200191505060405180910390fd5b82826000600360008481526020019081526020016000206005016000838152602001908152602001600020600201541161168a576040517f08c379a000000000000000000000000000000000000000000000000000000000815260040180806020018281038252601a8152602001807f54686973206974656d206973206f7574206f662073746f636b2100000000000081525060200191505060405180910390fd5b600080905060036000878152602001908152602001600020600501600086815260200190815260200160002060010154341115611701576116fe6003600088815260200190815260200160002060050160008781526020019081526020016000206001015434612cfb90919063ffffffff16565b90505b61172a346003600089815260200190815260200160002060020154612d4590919063ffffffff16565b6003600088815260200190815260200160002060020181905550611782600160036000898152602001908152602001600020600501600088815260200190815260200160002060020154612cfb90919063ffffffff16565b600360008881526020019081526020016000206005016000878152602001908152602001600020600201819055507fc2e673eca69e250dcbf52a7d0b0b0dbe3f91c5485bcbaa44245d15cbc3460aba8686604051808381526020018281526020019250505060405180910390a16000811115611840573373ffffffffffffffffffffffffffffffffffffffff166108fc829081150290604051600060405180830381858888f1935050505015801561183e573d6000803e3d6000fd5b505b505050505050565b600260009054906101000a900460ff16156118ae576040517f08c379a000000000000000000000000000000000000000000000000000000000815260040180806020018281038252603b815260200180613035603b913960400191505060405180910390fd5b6000803373ffffffffffffffffffffffffffffffffffffffff1673ffffffffffffffffffffffffffffffffffffffff16815260200190815260200160002060009054906101000a900460ff1661196c576040517f08c379a00000000000000000000000000000000000000000000000000000000081526004018080602001828103825260118152602001807f4d75737420626520616e2061646d696e2e00000000000000000000000000000081525060200191505060405180910390fd5b6001600260006101000a81548160ff0219169083151502179055507f6985a02210a168e66602d3235cb6db0e70f92b3ba4d376a33c0f3d9434bff62560405160405180910390a1565b6000803373ffffffffffffffffffffffffffffffffffffffff1673ffffffffffffffffffffffffffffffffffffffff16815260200190815260200160002060009054906101000a900460ff16611a73576040517f08c379a00000000000000000000000000000000000000000000000000000000081526004018080602001828103825260118152602001807f4d75737420626520616e2061646d696e2e00000000000000000000000000000081525060200191505060405180910390fd5b600260009054906101000a900460ff1615611ad9576040517f08c379a000000000000000000000000000000000000000000000000000000000815260040180806020018281038252603b815260200180613035603b913960400191505060405180910390fd5b60018060008373ffffffffffffffffffffffffffffffffffffffff1673ffffffffffffffffffffffffffffffffffffffff16815260200190815260200160002060006101000a81548160ff0219169083151502179055503373ffffffffffffffffffffffffffffffffffffffff168173ffffffffffffffffffffffffffffffffffffffff167f15b39d6a83b4640efed3a5dd692f6487d19002a6e34775bf3f00fcdea9d4758260405160405180910390a350565b60008060008060003373ffffffffffffffffffffffffffffffffffffffff1673ffffffffffffffffffffffffffffffffffffffff16815260200190815260200160002060009054906101000a900460ff16600160003373ffffffffffffffffffffffffffffffffffffffff1673ffffffffffffffffffffffffffffffffffffffff16815260200190815260200160002060009054906101000a900460ff16600454925092509250909192565b600260009054906101000a900460ff1615611c9f576040517f08c379a000000000000000000000000000000000000000000000000000000000815260040180806020018281038252603b815260200180613035603b913960400191505060405180910390fd5b600160003373ffffffffffffffffffffffffffffffffffffffff1673ffffffffffffffffffffffffffffffffffffffff16815260200190815260200160002060009054906101000a900460ff16611d5e576040517f08c379a00000000000000000000000000000000000000000000000000000000081526004018080602001828103825260168152602001807f4d75737420626520612073746f7265206f776e65722e0000000000000000000081525060200191505060405180910390fd5b33828173ffffffffffffffffffffffffffffffffffffffff166003600083815260200190815260200160002060000160009054906101000a900473ffffffffffffffffffffffffffffffffffffffff1673ffffffffffffffffffffffffffffffffffffffff1614611e37576040517f08c379a000000000000000000000000000000000000000000000000000000000815260040180806020018281038252601b8152602001807f4d75737420626520746869732073746f72652773206f776e657221000000000081525060200191505060405180910390fd5b60036000858152602001908152602001600020600501600084815260200190815260200160002060008082016000611e6f9190612f0d565b6001820160009055600282016000905550507f27c9205d6d9efc223113cd7761af36207d1ce6743fb9f2547f6fdb772c44bc8c8484604051808381526020018281526020019250505060405180910390a150505050565b6000600454905090565b600060606000806000600360008781526020019081526020016000206001018054600181600116156101000203166002900480601f016020809104026020016040519081016040528092919081815260200182805460018160011615610100020316600290048015611f835780601f10611f5857610100808354040283529160200191611f83565b820191906000526020600020905b815481529060010190602001808311611f6657829003601f168201915b5050505050935060036000878152602001908152602001600020600201549250600360008781526020019081526020016000206003015491506003600087815260200190815260200160002060000160009054906101000a900473ffffffffffffffffffffffffffffffffffffffff16905085848484849450945094509450945091939590929450565b60008060003373ffffffffffffffffffffffffffffffffffffffff1673ffffffffffffffffffffffffffffffffffffffff16815260200190815260200160002060009054906101000a900460ff16905090565b600060036000838152602001908152602001600020600301549050919050565b6000803373ffffffffffffffffffffffffffffffffffffffff1673ffffffffffffffffffffffffffffffffffffffff16815260200190815260200160002060009054906101000a900460ff1661213e576040517f08c379a00000000000000000000000000000000000000000000000000000000081526004018080602001828103825260118152602001807f4d75737420626520616e2061646d696e2e00000000000000000000000000000081525060200191505060405180910390fd5b600260009054906101000a900460ff16156121a4576040517f08c379a000000000000000000000000000000000000000000000000000000000815260040180806020018281038252603b815260200180613035603b913960400191505060405180910390fd5b6000600160008373ffffffffffffffffffffffffffffffffffffffff1673ffffffffffffffffffffffffffffffffffffffff16815260200190815260200160002060006101000a81548160ff0219169083151502179055503373ffffffffffffffffffffffffffffffffffffffff168173ffffffffffffffffffffffffffffffffffffffff167fdbdfc8c7df7b1d1e6c481e94aad29707019da41a2485b2ea4d8724cddce3849060405160405180910390a350565b600260009054906101000a900460ff16156122bf576040517f08c379a000000000000000000000000000000000000000000000000000000000815260040180806020018281038252603b815260200180613035603b913960400191505060405180910390fd5b600160003373ffffffffffffffffffffffffffffffffffffffff1673ffffffffffffffffffffffffffffffffffffffff16815260200190815260200160002060009054906101000a900460ff1661237e576040517f08c379a00000000000000000000000000000000000000000000000000000000081526004018080602001828103825260168152602001807f4d75737420626520612073746f7265206f776e65722e0000000000000000000081525060200191505060405180910390fd5b33858173ffffffffffffffffffffffffffffffffffffffff166003600083815260200190815260200160002060000160009054906101000a900473ffffffffffffffffffffffffffffffffffffffff1673ffffffffffffffffffffffffffffffffffffffff1614612457576040517f08c379a000000000000000000000000000000000000000000000000000000000815260040180806020018281038252601b8152602001807f4d75737420626520746869732073746f72652773206f776e657221000000000081525060200191505060405180910390fd5b60008090506003600089815260200190815260200160002060040160009054906101000a900460ff16156124fa576124af6001600360008b815260200190815260200160002060030154612d4590919063ffffffff16565b90506124db6001600360008b815260200190815260200160002060030154612d4590919063ffffffff16565b600360008a81526020019081526020016000206003018190555061252a565b6001600360008a815260200190815260200160002060040160006101000a81548160ff0219169083151502179055505b604051806060016040528088888080601f016020809104026020016040519081016040528093929190818152602001838380828437600081840152601f19601f82011690508083019250505050505050815260200186815260200185815250600360008a8152602001908152602001600020600501600083815260200190815260200160002060008201518160000190805190602001906125cc929190612f55565b5060208201518160010155604082015181600201559050503373ffffffffffffffffffffffffffffffffffffffff167f30d1f15a52173fe410863c529bd01554f73e11f437b3ba606c5cd794235ecf6389838a8a8a8a60405180878152602001868152602001806020018481526020018381526020018281038252868682818152602001925080828437600081840152601f19601f82011690508083019250505097505050505050505060405180910390a25050505050505050565b600060606000806003600087815260200190815260200160002060050160008681526020019081526020016000206000018054600181600116156101000203166002900480601f01602080910402602001604051908101604052809291908181526020018280546001816001161561010002031660029004801561274d5780601f106127225761010080835404028352916020019161274d565b820191906000526020600020905b81548152906001019060200180831161273057829003601f168201915b505050505092506003600087815260200190815260200160002060050160008681526020019081526020016000205060036000878152602001908152602001600020600501600086815260200190815260200160002060010154915060036000878152602001908152602001600020600501600086815260200190815260200160002060020154905084838383935093509350935092959194509250565b6000600260009054906101000a900460ff16905090565b600260009054906101000a900460ff1615612868576040517f08c379a000000000000000000000000000000000000000000000000000000000815260040180806020018281038252603b815260200180613035603b913960400191505060405180910390fd5b600160003373ffffffffffffffffffffffffffffffffffffffff1673ffffffffffffffffffffffffffffffffffffffff16815260200190815260200160002060009054906101000a900460ff16612927576040517f08c379a00000000000000000000000000000000000000000000000000000000081526004018080602001828103825260168152602001807f4d75737420626520612073746f7265206f776e65722e0000000000000000000081525060200191505060405180910390fd5b33838173ffffffffffffffffffffffffffffffffffffffff166003600083815260200190815260200160002060000160009054906101000a900473ffffffffffffffffffffffffffffffffffffffff1673ffffffffffffffffffffffffffffffffffffffff1614612a00576040517f08c379a000000000000000000000000000000000000000000000000000000000815260040180806020018281038252601b8152602001807f4d75737420626520746869732073746f72652773206f776e657221000000000081525060200191505060405180910390fd5b82600360008781526020019081526020016000206005016000868152602001908152602001600020600101819055503373ffffffffffffffffffffffffffffffffffffffff167f342a7f6248980b0f191b96eb6b7a439c4da78b2c97b86ca66cc7ee90d4b04cce86868660405180848152602001838152602001828152602001935050505060405180910390a25050505050565b60036020528060005260406000206000915090508060000160009054906101000a900473ffffffffffffffffffffffffffffffffffffffff1690806001018054600181600116156101000203166002900480601f016020809104026020016040519081016040528092919081815260200182805460018160011615610100020316600290048015612b665780601f10612b3b57610100808354040283529160200191612b66565b820191906000526020600020905b815481529060010190602001808311612b4957829003601f168201915b5050505050908060020154908060030154908060040160009054906101000a900460ff16905085565b600260009054906101000a900460ff16612bf4576040517f08c379a00000000000000000000000000000000000000000000000000000000081526004018080602001828103825260248152602001806130706024913960400191505060405180910390fd5b6000803373ffffffffffffffffffffffffffffffffffffffff1673ffffffffffffffffffffffffffffffffffffffff16815260200190815260200160002060009054906101000a900460ff16612cb2576040517f08c379a00000000000000000000000000000000000000000000000000000000081526004018080602001828103825260118152602001807f4d75737420626520616e2061646d696e2e00000000000000000000000000000081525060200191505060405180910390fd5b6000600260006101000a81548160ff0219169083151502179055507f7805862f689e2f13df9f062ff482ad3ad112aca9e0847911ed832e158c525b3360405160405180910390a1565b6000612d3d83836040518060400160405280601e81526020017f536166654d6174683a207375627472616374696f6e206f766572666c6f770000815250612dcd565b905092915050565b600080828401905083811015612dc3576040517f08c379a000000000000000000000000000000000000000000000000000000000815260040180806020018281038252601b8152602001807f536166654d6174683a206164646974696f6e206f766572666c6f77000000000081525060200191505060405180910390fd5b8091505092915050565b6000838311158290612e7a576040517f08c379a00000000000000000000000000000000000000000000000000000000081526004018080602001828103825283818151815260200191508051906020019080838360005b83811015612e3f578082015181840152602081019050612e24565b50505050905090810190601f168015612e6c5780820380516001836020036101000a031916815260200191505b509250505060405180910390fd5b5060008385039050809150509392505050565b828054600181600116156101000203166002900490600052602060002090601f016020900481019282601f10612ece57803560ff1916838001178555612efc565b82800160010185558215612efc579182015b82811115612efb578235825591602001919060010190612ee0565b5b509050612f099190612fd5565b5090565b50805460018160011615610100020316600290046000825580601f10612f335750612f52565b601f016020900490600052602060002090810190612f519190612fd5565b5b50565b828054600181600116156101000203166002900490600052602060002090601f016020900481019282601f10612f9657805160ff1916838001178555612fc4565b82800160010185558215612fc4579182015b82811115612fc3578251825591602001919060010190612fa8565b5b509050612fd19190612fd5565b5090565b612ff791905b80821115612ff3576000816000905550600101612fdb565b5090565b9056fe596f752063616e2774207769746864726177206d6f72652066756e6473207468616e207768617420796f7520686176652061637175697265642e4f7065726174696f6e73207769746820746865206f6e6c696e65206d61726b6574706c616365206172652063757272656e746c792070617573652e43616e277420756e70617573653b2063757272656e746c79206e6f74207061757365642ea265627a7a723158208c81dffdfb4d7d97fd6d6bf09d94a04c13c37c6c3206c04727e157777f7acda564736f6c63430005100032",
  "source": "// SPDX-License-Identifier: Zlib\r\npragma solidity >=0.5.16 <0.8.0;\r\n\r\nimport \"./Manageable.sol\";\r\n\r\nlibrary SafeMath {\r\n    function add(uint256 a, uint256 b) internal pure returns (uint256) {\r\n        uint256 c = a + b;\r\n        require(c >= a, \"SafeMath: addition overflow\");\r\n        return c;\r\n    }\r\n    function sub(uint256 a, uint256 b) internal pure returns (uint256) {\r\n        return sub(a, b, \"SafeMath: subtraction overflow\");\r\n    }\r\n\r\n    function sub(uint256 a, uint256 b, string memory errorMessage) internal pure returns (uint256) {\r\n        require(b <= a, errorMessage);\r\n        uint256 c = a - b;\r\n\r\n        return c;\r\n    }\r\n}\r\n\r\n/// @title Online Marketplace - manages and creates stores and store inventories, allows shoppers to buy items\r\n/// @author Danielle Lapis\r\ncontract Marketplace is Manageable {\r\n    using SafeMath for uint;\r\n\r\n    mapping(uint => Store) public stores;\r\n\r\n    uint lastStoreId;\r\n\r\n    struct Store {\r\n        address owner;\r\n        string name;\r\n        uint funds;\r\n        uint highItemId;\r\n        bool firstItemCreated;\r\n        mapping(uint => Item) items;\r\n    }\r\n\r\n    struct Item {\r\n        string name;\r\n        uint price;\r\n        uint quantity;\r\n    }\r\n\r\n    // Store Owner events \r\n    event AddStore(address indexed storeOwner, uint storeId, string name);\r\n    event AddNewItem(address indexed storeOwner, uint storeId, uint itemId, string name, uint price, uint quantity);\r\n    event RemoveItem(uint storeId, uint id);\r\n    event ChangePrice(address indexed storeOwner, uint storeId, uint itemId, uint price);\r\n    event WithdrawFunds(address indexed storeOwner, uint storeId, uint funds);\r\n\r\n    // Shopper events \r\n    event BuyItem(uint storeId, uint itemId);\r\n\r\n    // Modifiers \r\n    modifier paidEnough(uint _price) { \r\n        require(msg.value >= _price,\r\n        \"Not enough was paid.\"); \r\n        _;}\r\n\r\n    modifier enoughQuantity(uint _storeId, uint _itemId) {\r\n        require(stores[_storeId].items[_itemId].quantity > 0,\r\n        \"This item is out of stock!\");\r\n        _;\r\n    }\r\n\r\n    modifier storesSpecificOwner(address _storeOwner, uint _storeId)\r\n    {\r\n        require(stores[_storeId].owner == _storeOwner,\r\n        \"Must be this store's owner!\");\r\n        _;\r\n    }\r\n\r\n    /// @dev Constructor sets up some demo stores and items to start with\r\n    constructor() public {\r\n        //addStore(\"Demo Store - Survival Items\");\r\n        admins[msg.sender] = true;\r\n        storeOwners[msg.sender] = true;\r\n        paused = false;\r\n        stores[0].owner = msg.sender;\r\n        stores[0].name = \"Survival Items\";\r\n        stores[0].funds = 0;\r\n        //stores[0] = Store(msg.sender, \"Demo Store - Survival Items\",0,0, false);\r\n        stores[0].items[0] = Item(\"Flashlights\", 2, 10);\r\n        stores[0].items[1] = Item(\"First Aid Kits\", 1, 20);\r\n        stores[0].items[2] = Item(\"Flares\", 1, 10);\r\n        stores[0].highItemId = 2;\r\n        stores[0].firstItemCreated = true;\r\n        //stores[1] = Store(msg.sender, \"Demo Store 2 - Programmer Gear\",0,0, false);\r\n        stores[1].owner = msg.sender;\r\n        stores[1].name = \"Solidity Programmer Gear\";\r\n        stores[1].funds = 0;\r\n        stores[1].items[0] = Item(\"Lenovo Linux Laptop\",5,10);\r\n        stores[1].items[1] = Item(\"Macbook Pro laptop\",5,5);\r\n        stores[1].items[2] = Item(\"I Love Solidity Coffee Mug\",1,100);\r\n        stores[1].highItemId = 2;\r\n        stores[1].firstItemCreated = true;\r\n        lastStoreId = 1;\r\n   }  \r\n\r\n\r\n\r\n    // Store Owner functions \r\n\r\n    /// @dev Adds a new store\r\n    /// @param name Name of the new store\r\n    function addStore(string calldata name) external\r\n    notPaused\r\n    storeOwnerOnly\r\n    {\r\n        require(lastStoreId <= 15,\"The limit is 16 stores!\");\r\n        lastStoreId += 1;\r\n        uint _storeId = (lastStoreId);\r\n        //stores[_storeId] = Store(msg.sender, _name, 0, 0, false);\r\n        stores[_storeId].owner = msg.sender;\r\n        stores[_storeId].name = name;\r\n        stores[_storeId].funds = 0;\r\n        stores[_storeId].highItemId = 0;\r\n        stores[_storeId].firstItemCreated = false;\r\n        emit AddStore(msg.sender, _storeId, name);\r\n    } \r\n\r\n    /// @dev Adds a new store item\r\n    /// @param storeId id of the store\r\n    /// @param name name of the new item\r\n    /// @param price price of the new item\r\n    /// @param quantity quantity of the new item\r\n    function addStoreItem(uint storeId,string calldata name, uint price, uint quantity)\r\n    external\r\n    notPaused\r\n    storeOwnerOnly storesSpecificOwner(msg.sender, storeId)\r\n    {\r\n        uint _newItemId = 0;\r\n        if (stores[storeId].firstItemCreated)\r\n        {\r\n            // second item or greater\r\n            _newItemId = stores[storeId].highItemId.add(1);\r\n            stores[storeId].highItemId = stores[storeId].highItemId.add(1);\r\n        }\r\n        else \r\n        {\r\n            // first item in an empty store\r\n            stores[storeId].firstItemCreated = true;\r\n        }\r\n         stores[storeId].items[_newItemId] = Item(name, price, quantity);\r\n        emit AddNewItem(msg.sender, storeId, _newItemId, name, price, quantity);\r\n    }\r\n\r\n    /// @dev Removes a store item\r\n    /// @param storeId id of the store\r\n    /// @param itemId id of the item to remove\r\n    function removeStoreItem(uint storeId, uint itemId)\r\n    external\r\n    notPaused\r\n    storeOwnerOnly storesSpecificOwner(msg.sender, storeId)\r\n    {\r\n        delete stores[storeId].items[itemId];\r\n        emit RemoveItem(storeId, itemId);\r\n    }\r\n\r\n    /// @dev Changes the price of an item\r\n    /// @param storeId id of the store\r\n    /// @param itemId id of the item to remove\r\n    /// @param newPrice the new price for the item\r\n    function changeItemPrice(uint storeId, uint itemId, uint newPrice)\r\n    external\r\n    notPaused\r\n    storeOwnerOnly storesSpecificOwner(msg.sender, storeId)\r\n    {\r\n        stores[storeId].items[itemId].price = newPrice;\r\n        emit ChangePrice(msg.sender, storeId, itemId, newPrice);\r\n    }\r\n\r\n    /// @dev Removes funds from a store\r\n    /// @param storeId id of the store\r\n    /// @param amountToWithdraw amount to withdraw from the store funds\r\n    /// @return withdrawAmount returns the remaining balance in the store\r\n    function withdrawStoreFunds(uint storeId, uint amountToWithdraw)\r\n    payable\r\n    external\r\n    notPaused\r\n    storeOwnerOnly storesSpecificOwner(msg.sender, storeId)\r\n    returns (uint withdrawAmount) \r\n    {\r\n        require(amountToWithdraw < stores[storeId].funds,\"You can't withdraw more funds than what you have acquired.\");\r\n        stores[storeId].funds = stores[storeId].funds.sub(amountToWithdraw);\r\n        emit WithdrawFunds(msg.sender, storeId, amountToWithdraw);\r\n        msg.sender.transfer(amountToWithdraw);\r\n        return stores[storeId].funds;\r\n    }\r\n\r\n    // Shoppers\r\n\r\n    /// @dev Buys an item from a store\r\n    /// @param storeId id of the store to buy from\r\n    /// @param itemId id of the item to buy\r\n    function buyStoreItem(uint storeId, uint itemId)\r\n    external\r\n    payable\r\n    notPaused\r\n    paidEnough(stores[storeId].items[itemId].price)\r\n    enoughQuantity(storeId,itemId)\r\n    {\r\n        uint _amountToRefund = 0;\r\n        if (msg.value >  stores[storeId].items[itemId].price ) {\r\n          _amountToRefund = msg.value.sub(stores[storeId].items[itemId].price);\r\n        }\r\n        stores[storeId].funds = stores[storeId].funds.add(msg.value);\r\n        stores[storeId].items[itemId].quantity = stores[storeId].items[itemId].quantity.sub(1);\r\n        emit BuyItem(storeId, itemId);\r\n        if (_amountToRefund > 0) {\r\n            msg.sender.transfer(_amountToRefund);\r\n        }\r\n    }\r\n\r\n\r\n    /// @dev gets data on an item from the store for the front end\r\n    /// @param storeId id of the store\r\n    /// @param itemId id of the item \r\n    /// @return id id of the item being fetched\r\n    /// @return name name of the item being fetched\r\n    /// @return price price of the item being fetched\r\n    /// @return quantity quantity of the item being fetched\r\n    function fetchItem(uint storeId, uint itemId) external view returns (uint id, string memory name, uint price, uint quantity) {\r\n    //function fetchItem(uint _storeId, uint _itemId) external returns (uint id, string memory name, uint price, uint quantity) {\r\n        name = stores[storeId].items[itemId].name;\r\n        stores[storeId].items[itemId].name;\r\n        price = stores[storeId].items[itemId].price;\r\n        quantity = stores[storeId].items[itemId].quantity;\r\n\r\n        //emit FetchItem(_itemId, name, price, quantity);\r\n        return (itemId, name, price, quantity);\r\n    }\r\n\r\n    /// @dev gets data on a store for the front end\r\n    /// @param storeId id of the store\r\n    function fetchStore(uint storeId) external view returns (uint id, string memory name, uint funds, uint highItemId, address owner)\r\n    {\r\n        name = stores[storeId].name;\r\n        funds = stores[storeId].funds;\r\n        highItemId = stores[storeId].highItemId;\r\n        owner = stores[storeId].owner;\r\n        return (storeId, name, funds, highItemId, owner);\r\n    }\r\n\r\n    /// @dev used in web3 truffle tests\r\n    /// @return id the highest store id\r\n    function getLastStoreId() external view returns (uint id) {\r\n        return lastStoreId;\r\n    }\r\n\r\n    /// @dev get the highest item id in a store\r\n    /// @param id the id of the store\r\n    /// @return highItemId the highest item id\r\n    function getItemCount(uint id) external view returns (uint highItemId) {\r\n        return stores[id].highItemId;\r\n    }\r\n\r\n    /// @dev Used when initially loading the front end\r\n    /// @return userIsAdmin status of the user as an admin or not\r\n    /// @return userIsStoreOwner status of the user as a stoer owner\r\n    /// @return id highest store id, used for loading the stores\r\n    function getFrontEndData() external view returns(bool userIsAdmin, bool userIsStoreOwner, uint id)\r\n    {\r\n        return (admins[msg.sender],storeOwners[msg.sender],lastStoreId);\r\n    }\r\n\r\n}",
  "sourcePath": "/mnt/c/Users/Danielle/projects/consensys/react-online-marketplace/contracts/Marketplace.sol",
  "compiler": {
    "name": "solc",
    "version": "0.5.16+commit.9c3226ce.Emscripten.clang"
  },
  "schemaVersion": "3.2.5",
  "updatedAt": "2020-11-30T05:03:05.982Z",
  "networkType": "ethereum",
  "devdoc": {
    "author": "Danielle Lapis",
    "methods": {
      "addAdmin(address)": {
        "details": "Adds a new address as admin",
        "params": {
          "admin": "address for the new admin"
        }
      },
      "addStore(string)": {
        "details": "Adds a new store",
        "params": {
          "name": "Name of the new store"
        }
      },
      "addStoreItem(uint256,string,uint256,uint256)": {
        "details": "Adds a new store item",
        "params": {
          "name": "name of the new item",
          "price": "price of the new item",
          "quantity": "quantity of the new item",
          "storeId": "id of the store"
        }
      },
      "addStoreOwner(address)": {
        "details": "Adds a store owner",
        "params": {
          "storeOwner": "address to add as a store owner"
        }
      },
      "buyStoreItem(uint256,uint256)": {
        "details": "Buys an item from a store",
        "params": {
          "itemId": "id of the item to buy",
          "storeId": "id of the store to buy from"
        }
      },
      "changeItemPrice(uint256,uint256,uint256)": {
        "details": "Changes the price of an item",
        "params": {
          "itemId": "id of the item to remove",
          "newPrice": "the new price for the item",
          "storeId": "id of the store"
        }
      },
      "checkIsPaused()": {
        "return": "returns true if the store is paused, false if not"
      },
      "constructor": {
        "details": "Constructor sets up some demo stores and items to start with"
      },
      "fetchItem(uint256,uint256)": {
        "details": "gets data on an item from the store for the front end",
        "params": {
          "itemId": "id of the item ",
          "storeId": "id of the store"
        },
        "return": "id id of the item being fetchedname name of the item being fetchedprice price of the item being fetchedquantity quantity of the item being fetched"
      },
      "fetchStore(uint256)": {
        "details": "gets data on a store for the front end",
        "params": {
          "storeId": "id of the store"
        }
      },
      "getFrontEndData()": {
        "details": "Used when initially loading the front end",
        "return": "userIsAdmin status of the user as an admin or notuserIsStoreOwner status of the user as a stoer ownerid highest store id, used for loading the stores"
      },
      "getItemCount(uint256)": {
        "details": "get the highest item id in a store",
        "params": {
          "id": "the id of the store"
        },
        "return": "highItemId the highest item id"
      },
      "getLastStoreId()": {
        "details": "used in web3 truffle tests",
        "return": "id the highest store id"
      },
      "isAdmin()": {
        "return": "returns status of whether the user is an admin or not"
      },
      "isStoreOwner()": {
        "return": "returns status of whether the user is a store owner or not"
      },
      "pause()": {
        "details": "Circuit breaker - pauses the contract"
      },
      "removeStoreItem(uint256,uint256)": {
        "details": "Removes a store item",
        "params": {
          "itemId": "id of the item to remove",
          "storeId": "id of the store"
        }
      },
      "revokeAdmin(address)": {
        "details": "Rmoves a new address as admin",
        "params": {
          "admin": "address to remove as admin"
        }
      },
      "revokeStoreOwner(address)": {
        "details": "Removes store owner permissions",
        "params": {
          "storeOwner": "address to remove as a store owner"
        }
      },
      "unPause()": {
        "details": "Circuit breaker - unpauses the contract"
      },
      "withdrawStoreFunds(uint256,uint256)": {
        "details": "Removes funds from a store",
        "params": {
          "amountToWithdraw": "amount to withdraw from the store funds",
          "storeId": "id of the store"
        },
        "return": "withdrawAmount returns the remaining balance in the store"
      }
    },
    "title": "Online Marketplace - manages and creates stores and store inventories, allows shoppers to buy items"
  },
  "userdoc": {
    "methods": {}
  }
}